S01100004C43442038204249542E73726563E9
S11300000C942A000C943F000C943F000C943F0085
S11300100C943F000C943F000C943F000C943F0060
S11300200C943F000C943F000C943F000C943F0050
S11300300C943F000C943F000C943F000C943F0040
S11300400C943F000C943F000C943F000C943F0030
S11300500C943F0011241FBECFE5D4E0DEBFCDBF1A
S113006010E0A0E6B0E0E4E3F1E002C005900D92F8
S1130070A436B107D9F70E9485000C9498000C941B
S11300800000AE98AF9A8BBB00C000C00000AF98D0
S113009089EF90E00197F1F700C000000895AE9A4F
S11300A0AF9A8BBB00C000C00000AF9889EF90E00E
S11300B00197F1F700C0000008958FEF84BB8ABB5D
S11300C087E893E10197F1F700C0000088E30E94FC
S11300D041008CE00E94410086E00E94410081E0E2
S11300E00E94410080E80E9441000895CF93DF936D
S11300F0EC018881882331F021960E944F00899178
S11301008111FBCFDF91CF9108950E945D0080E8BB
S11301100E94410080E690E00E9476008CE10E94FB
S1130120410087EA91E60197F1F700C00000EFCFA4
S1070130F894FFCF6D
S107013456415300D9
S9030000FC
